{
  "_format": "hh-sol-artifact-1",
  "contractName": "ProductTracking",
  "sourceName": "contracts/ProductTracking.sol",
  "abi": [
    {
      "inputs": [],
      "stateMutability": "nonpayable",
      "type": "constructor"
    },
    {
      "anonymous": false,
      "inputs": [
        {
          "indexed": false,
          "internalType": "string",
          "name": "serialNumber",
          "type": "string"
        },
        {
          "indexed": false,
          "internalType": "string",
          "name": "name",
          "type": "string"
        },
        {
          "indexed": false,
          "internalType": "string",
          "name": "manufacturer",
          "type": "string"
        }
      ],
      "name": "ProductRegistered",
      "type": "event"
    },
    {
      "anonymous": false,
      "inputs": [
        {
          "indexed": false,
          "internalType": "string",
          "name": "serialNumber",
          "type": "string"
        },
        {
          "indexed": false,
          "internalType": "string",
          "name": "status",
          "type": "string"
        }
      ],
      "name": "ProductUpdated",
      "type": "event"
    },
    {
      "inputs": [],
      "name": "admin",
      "outputs": [
        {
          "internalType": "address",
          "name": "",
          "type": "address"
        }
      ],
      "stateMutability": "view",
      "type": "function"
    },
    {
      "inputs": [
        {
          "internalType": "string",
          "name": "_serialNumber",
          "type": "string"
        }
      ],
      "name": "getProductDetails",
      "outputs": [
        {
          "internalType": "string",
          "name": "",
          "type": "string"
        },
        {
          "internalType": "string",
          "name": "",
          "type": "string"
        },
        {
          "internalType": "string",
          "name": "",
          "type": "string"
        },
        {
          "internalType": "string",
          "name": "",
          "type": "string"
        },
        {
          "internalType": "uint256",
          "name": "",
          "type": "uint256"
        },
        {
          "internalType": "address",
          "name": "",
          "type": "address"
        }
      ],
      "stateMutability": "view",
      "type": "function"
    },
    {
      "inputs": [
        {
          "internalType": "string",
          "name": "",
          "type": "string"
        }
      ],
      "name": "products",
      "outputs": [
        {
          "internalType": "string",
          "name": "name",
          "type": "string"
        },
        {
          "internalType": "string",
          "name": "manufacturer",
          "type": "string"
        },
        {
          "internalType": "string",
          "name": "serialNumber",
          "type": "string"
        },
        {
          "internalType": "string",
          "name": "status",
          "type": "string"
        },
        {
          "internalType": "uint256",
          "name": "timestamp",
          "type": "uint256"
        },
        {
          "internalType": "address",
          "name": "owner",
          "type": "address"
        }
      ],
      "stateMutability": "view",
      "type": "function"
    },
    {
      "inputs": [
        {
          "internalType": "string",
          "name": "_serialNumber",
          "type": "string"
        },
        {
          "internalType": "string",
          "name": "_name",
          "type": "string"
        },
        {
          "internalType": "string",
          "name": "_manufacturer",
          "type": "string"
        }
      ],
      "name": "registerProduct",
      "outputs": [],
      "stateMutability": "nonpayable",
      "type": "function"
    },
    {
      "inputs": [
        {
          "internalType": "string[]",
          "name": "_serialNumbers",
          "type": "string[]"
        },
        {
          "internalType": "string[]",
          "name": "_names",
          "type": "string[]"
        },
        {
          "internalType": "string[]",
          "name": "_manufacturers",
          "type": "string[]"
        }
      ],
      "name": "registerProducts",
      "outputs": [],
      "stateMutability": "nonpayable",
      "type": "function"
    },
    {
      "inputs": [
        {
          "internalType": "string",
          "name": "_serialNumber",
          "type": "string"
        },
        {
          "internalType": "string",
          "name": "_status",
          "type": "string"
        }
      ],
      "name": "updateProductStatus",
      "outputs": [],
      "stateMutability": "nonpayable",
      "type": "function"
    }
  ],
  "bytecode": "0x608060405234801561001057600080fd5b5033600160006101000a81548173ffffffffffffffffffffffffffffffffffffffff021916908373ffffffffffffffffffffffffffffffffffffffff160217905550611aa6806100616000396000f3fe608060405234801561001057600080fd5b50600436106100625760003560e01c80630186a42314610067578063059871471461009c578063198c59b0146100b85780633406b718146100ed578063594629fd14610109578063f851a44014610125575b600080fd5b610081600480360381019061007c9190611000565b610143565b60405161009396959493929190611122565b60405180910390f35b6100b660048036038101906100b1919061119f565b6103d5565b005b6100d260048036038101906100cd9190611000565b6105dd565b6040516100e496959493929190611122565b60405180910390f35b61010760048036038101906101029190611217565b61095d565b005b610123600480360381019061011e91906113a4565b610b4e565b005b61012d610e80565b60405161013a919061144b565b60405180910390f35b60008180516020810182018051848252602083016020850120818352809550505050505060009150905080600001805461017c90611495565b80601f01602080910402602001604051908101604052809291908181526020018280546101a890611495565b80156101f55780601f106101ca576101008083540402835291602001916101f5565b820191906000526020600020905b8154815290600101906020018083116101d857829003601f168201915b50505050509080600101805461020a90611495565b80601f016020809104026020016040519081016040528092919081815260200182805461023690611495565b80156102835780601f1061025857610100808354040283529160200191610283565b820191906000526020600020905b81548152906001019060200180831161026657829003601f168201915b50505050509080600201805461029890611495565b80601f01602080910402602001604051908101604052809291908181526020018280546102c490611495565b80156103115780601f106102e657610100808354040283529160200191610311565b820191906000526020600020905b8154815290600101906020018083116102f457829003601f168201915b50505050509080600301805461032690611495565b80601f016020809104026020016040519081016040528092919081815260200182805461035290611495565b801561039f5780601f106103745761010080835404028352916020019161039f565b820191906000526020600020905b81548152906001019060200180831161038257829003601f168201915b5050505050908060040154908060050160009054906101000a900473ffffffffffffffffffffffffffffffffffffffff16905086565b600080836040516103e69190611502565b9081526020016040518091039020600201805461040290611495565b905003610444576040517f08c379a000000000000000000000000000000000000000000000000000000000815260040161043b90611565565b60405180910390fd5b6000826040516104549190611502565b908152602001604051809103902060050160009054906101000a900473ffffffffffffffffffffffffffffffffffffffff1673ffffffffffffffffffffffffffffffffffffffff163373ffffffffffffffffffffffffffffffffffffffff16148061050c5750600160009054906101000a900473ffffffffffffffffffffffffffffffffffffffff1673ffffffffffffffffffffffffffffffffffffffff163373ffffffffffffffffffffffffffffffffffffffff16145b61054b576040517f08c379a0000000000000000000000000000000000000000000000000000000008152600401610542906115d1565b60405180910390fd5b8060008360405161055c9190611502565b90815260200160405180910390206003019081610579919061179d565b504260008360405161058b9190611502565b9081526020016040518091039020600401819055507ff37817d4c5115d6af7de2dace12909f8fc620dd23e4a1b435ac91875fe4792ed82826040516105d192919061186f565b60405180910390a15050565b606080606080600080600080886040516105f79190611502565b9081526020016040518091039020600201805461061390611495565b905003610655576040517f08c379a000000000000000000000000000000000000000000000000000000000815260040161064c90611565565b60405180910390fd5b600080886040516106669190611502565b90815260200160405180910390206040518060c001604052908160008201805461068f90611495565b80601f01602080910402602001604051908101604052809291908181526020018280546106bb90611495565b80156107085780601f106106dd57610100808354040283529160200191610708565b820191906000526020600020905b8154815290600101906020018083116106eb57829003601f168201915b5050505050815260200160018201805461072190611495565b80601f016020809104026020016040519081016040528092919081815260200182805461074d90611495565b801561079a5780601f1061076f5761010080835404028352916020019161079a565b820191906000526020600020905b81548152906001019060200180831161077d57829003601f168201915b505050505081526020016002820180546107b390611495565b80601f01602080910402602001604051908101604052809291908181526020018280546107df90611495565b801561082c5780601f106108015761010080835404028352916020019161082c565b820191906000526020600020905b81548152906001019060200180831161080f57829003601f168201915b5050505050815260200160038201805461084590611495565b80601f016020809104026020016040519081016040528092919081815260200182805461087190611495565b80156108be5780601f10610893576101008083540402835291602001916108be565b820191906000526020600020905b8154815290600101906020018083116108a157829003601f168201915b50505050508152602001600482015481526020016005820160009054906101000a900473ffffffffffffffffffffffffffffffffffffffff1673ffffffffffffffffffffffffffffffffffffffff1673ffffffffffffffffffffffffffffffffffffffff16815250509050806000015181602001518260400151836060015184608001518560a001519650965096509650965096505091939550919395565b6000808460405161096e9190611502565b9081526020016040518091039020600201805461098a90611495565b9050146109cc576040517f08c379a00000000000000000000000000000000000000000000000000000000081526004016109c3906118f2565b60405180910390fd5b6040518060c001604052808381526020018281526020018481526020016040518060400160405280600c81526020017f4d616e756661637475726564000000000000000000000000000000000000000081525081526020014281526020013373ffffffffffffffffffffffffffffffffffffffff16815250600084604051610a549190611502565b90815260200160405180910390206000820151816000019081610a77919061179d565b506020820151816001019081610a8d919061179d565b506040820151816002019081610aa3919061179d565b506060820151816003019081610ab9919061179d565b506080820151816004015560a08201518160050160006101000a81548173ffffffffffffffffffffffffffffffffffffffff021916908373ffffffffffffffffffffffffffffffffffffffff1602179055509050507f5a304478b5ad812924e60fb3ee7fadbb2269effa0df0ede39b00fc1c606ee0c0838383604051610b4193929190611912565b60405180910390a1505050565b81518351148015610b60575080518251145b610b9f576040517f08c379a0000000000000000000000000000000000000000000000000000000008152600401610b96906119aa565b60405180910390fd5b60005b8351811015610e7a57600080858381518110610bc157610bc06119ca565b5b6020026020010151604051610bd69190611502565b90815260200160405180910390206002018054610bf290611495565b905014610c34576040517f08c379a0000000000000000000000000000000000000000000000000000000008152600401610c2b906118f2565b60405180910390fd5b6040518060c00160405280848381518110610c5257610c516119ca565b5b60200260200101518152602001838381518110610c7257610c716119ca565b5b60200260200101518152602001858381518110610c9257610c916119ca565b5b602002602001015181526020016040518060400160405280600c81526020017f4d616e756661637475726564000000000000000000000000000000000000000081525081526020014281526020013373ffffffffffffffffffffffffffffffffffffffff168152506000858381518110610d0f57610d0e6119ca565b5b6020026020010151604051610d249190611502565b90815260200160405180910390206000820151816000019081610d47919061179d565b506020820151816001019081610d5d919061179d565b506040820151816002019081610d73919061179d565b506060820151816003019081610d89919061179d565b506080820151816004015560a08201518160050160006101000a81548173ffffffffffffffffffffffffffffffffffffffff021916908373ffffffffffffffffffffffffffffffffffffffff1602179055509050507f5a304478b5ad812924e60fb3ee7fadbb2269effa0df0ede39b00fc1c606ee0c0848281518110610e1257610e116119ca565b5b6020026020010151848381518110610e2d57610e2c6119ca565b5b6020026020010151848481518110610e4857610e476119ca565b5b6020026020010151604051610e5f93929190611912565b60405180910390a18080610e7290611a28565b915050610ba2565b50505050565b600160009054906101000a900473ffffffffffffffffffffffffffffffffffffffff1681565b6000604051905090565b600080fd5b600080fd5b600080fd5b600080fd5b6000601f19601f8301169050919050565b7f4e487b7100000000000000000000000000000000000000000000000000000000600052604160045260246000fd5b610f0d82610ec4565b810181811067ffffffffffffffff82111715610f2c57610f2b610ed5565b5b80604052505050565b6000610f3f610ea6565b9050610f4b8282610f04565b919050565b600067ffffffffffffffff821115610f6b57610f6a610ed5565b5b610f7482610ec4565b9050602081019050919050565b82818337600083830152505050565b6000610fa3610f9e84610f50565b610f35565b905082815260208101848484011115610fbf57610fbe610ebf565b5b610fca848285610f81565b509392505050565b600082601f830112610fe757610fe6610eba565b5b8135610ff7848260208601610f90565b91505092915050565b60006020828403121561101657611015610eb0565b5b600082013567ffffffffffffffff81111561103457611033610eb5565b5b61104084828501610fd2565b91505092915050565b600081519050919050565b600082825260208201905092915050565b60005b83811015611083578082015181840152602081019050611068565b60008484015250505050565b600061109a82611049565b6110a48185611054565b93506110b4818560208601611065565b6110bd81610ec4565b840191505092915050565b6000819050919050565b6110db816110c8565b82525050565b600073ffffffffffffffffffffffffffffffffffffffff82169050919050565b600061110c826110e1565b9050919050565b61111c81611101565b82525050565b600060c082019050818103600083015261113c818961108f565b90508181036020830152611150818861108f565b90508181036040830152611164818761108f565b90508181036060830152611178818661108f565b905061118760808301856110d2565b61119460a0830184611113565b979650505050505050565b600080604083850312156111b6576111b5610eb0565b5b600083013567ffffffffffffffff8111156111d4576111d3610eb5565b5b6111e085828601610fd2565b925050602083013567ffffffffffffffff81111561120157611200610eb5565b5b61120d85828601610fd2565b9150509250929050565b6000806000606084860312156112305761122f610eb0565b5b600084013567ffffffffffffffff81111561124e5761124d610eb5565b5b61125a86828701610fd2565b935050602084013567ffffffffffffffff81111561127b5761127a610eb5565b5b61128786828701610fd2565b925050604084013567ffffffffffffffff8111156112a8576112a7610eb5565b5b6112b486828701610fd2565b9150509250925092565b600067ffffffffffffffff8211156112d9576112d8610ed5565b5b602082029050602081019050919050565b600080fd5b60006113026112fd846112be565b610f35565b90508083825260208201905060208402830185811115611325576113246112ea565b5b835b8181101561136c57803567ffffffffffffffff81111561134a57611349610eba565b5b8086016113578982610fd2565b85526020850194505050602081019050611327565b5050509392505050565b600082601f83011261138b5761138a610eba565b5b813561139b8482602086016112ef565b91505092915050565b6000806000606084860312156113bd576113bc610eb0565b5b600084013567ffffffffffffffff8111156113db576113da610eb5565b5b6113e786828701611376565b935050602084013567ffffffffffffffff81111561140857611407610eb5565b5b61141486828701611376565b925050604084013567ffffffffffffffff81111561143557611434610eb5565b5b61144186828701611376565b9150509250925092565b60006020820190506114606000830184611113565b92915050565b7f4e487b7100000000000000000000000000000000000000000000000000000000600052602260045260246000fd5b600060028204905060018216806114ad57607f821691505b6020821081036114c0576114bf611466565b5b50919050565b600081905092915050565b60006114dc82611049565b6114e681856114c6565b93506114f6818560208601611065565b80840191505092915050565b600061150e82846114d1565b915081905092915050565b7f50726f64756374206e6f7420666f756e64000000000000000000000000000000600082015250565b600061154f601183611054565b915061155a82611519565b602082019050919050565b6000602082019050818103600083015261157e81611542565b9050919050565b7f556e617574686f72697a65643a204e6f74206f776e6572206f722061646d696e600082015250565b60006115bb602083611054565b91506115c682611585565b602082019050919050565b600060208201905081810360008301526115ea816115ae565b9050919050565b60008190508160005260206000209050919050565b60006020601f8301049050919050565b600082821b905092915050565b6000600883026116537fffffffffffffffffffffffffffffffffffffffffffffffffffffffffffffffff82611616565b61165d8683611616565b95508019841693508086168417925050509392505050565b6000819050919050565b600061169a611695611690846110c8565b611675565b6110c8565b9050919050565b6000819050919050565b6116b48361167f565b6116c86116c0826116a1565b848454611623565b825550505050565b600090565b6116dd6116d0565b6116e88184846116ab565b505050565b5b8181101561170c576117016000826116d5565b6001810190506116ee565b5050565b601f82111561175157611722816115f1565b61172b84611606565b8101602085101561173a578190505b61174e61174685611606565b8301826116ed565b50505b505050565b600082821c905092915050565b600061177460001984600802611756565b1980831691505092915050565b600061178d8383611763565b9150826002028217905092915050565b6117a682611049565b67ffffffffffffffff8111156117bf576117be610ed5565b5b6117c98254611495565b6117d4828285611710565b600060209050601f83116001811461180757600084156117f5578287015190505b6117ff8582611781565b865550611867565b601f198416611815866115f1565b60005b8281101561183d57848901518255600182019150602085019450602081019050611818565b8683101561185a5784890151611856601f891682611763565b8355505b6001600288020188555050505b505050505050565b60006040820190508181036000830152611889818561108f565b9050818103602083015261189d818461108f565b90509392505050565b7f50726f6475637420616c72656164792072656769737465726564000000000000600082015250565b60006118dc601a83611054565b91506118e7826118a6565b602082019050919050565b6000602082019050818103600083015261190b816118cf565b9050919050565b6000606082019050818103600083015261192c818661108f565b90508181036020830152611940818561108f565b90508181036040830152611954818461108f565b9050949350505050565b7f496e707574206172726179206c656e67746873206d757374206d617463680000600082015250565b6000611994601e83611054565b915061199f8261195e565b602082019050919050565b600060208201905081810360008301526119c381611987565b9050919050565b7f4e487b7100000000000000000000000000000000000000000000000000000000600052603260045260246000fd5b7f4e487b7100000000000000000000000000000000000000000000000000000000600052601160045260246000fd5b6000611a33826110c8565b91507fffffffffffffffffffffffffffffffffffffffffffffffffffffffffffffffff8203611a6557611a646119f9565b5b60018201905091905056fea264697066735822122042e05c4fd2466e2f6aefdc23443934e4273f2f12e5a9c84dc48e39730971e4d664736f6c63430008140033",
  "linkReferences": {},
  "deployedLinkReferences": {}
}